:400000000040002011000000511000005110000080B500AF01F020F880B584B000AF021CFB1D1A70204A3B1C0B3312781A701F4A3B1C0A3312781A700423013BFB6018E0EE
:400040001B4B1868391C0B31FA68131C5B009B18C3185B780B70164B1868391C0A31FA68131C5B009B18C3189B780B70FB68013BFB60FB68002B0ADB0D4B1968FA68131CF1
:400080005B009B185B5CFA1D12789A42D8D9094B3A1C0B3212781A60074B3A1C0A3212781A60BD4604B080BDCCF1FF0FCDF1FF0FF80000201CFF0B4020FF0B4080B500AF23
:4000C000324B12221A603020FFF7A6FF304B314A1278D2B21A60052001F07EFD2E4B35221A6001F075FCFA235B00181C01F050FD012001F07DFC294B294A1A60294B802243
:40010000D2051A60284B294A1A60294B284A126808218A431A60FA23DB00181C01F012FC244B181C01F058FD234BC02292001A60224B234A1A60234B9C2292021A601F4BD6
:40014000214A1A60214BE82252011A601B4B204A1A60204B802212061A601F4B8022D2021A601E4B40221A601D4B40221A601D4B40221A601C4B40221A601C4B42221A60BF
:400180001B4B41221A60BD4680BDC0463000104028FF0B40FDF1FF0F2CFF0B4004010B40060000800C020B407C002E402D3E00006CF02E40DC05000000030140000001409E
:4001C00040FF00800803014042FF00800403014041FF008008010B4000010B402801014024010140200101401C010140080101400401014080B582B000AF72B6474B002279
:400200001A60FB1D00221A7023E0FB1D1A78131C5B009B185B00424A9B183B603B681A78597809020A43997809040A43DB781B0613431A1C3B6819795B791B020B439BB2D7
:40024000101C191C00F08CFFFB1D1A78FB1D01321A70FB1D1B78012BD7D9324A324B101C191C00F08DFF314B314A1A60314BEE221A60314B02221A60304B314A1A60314B49
:4002800002221A60304B8C221A60304B304A1A60304B802212021A602F4BC3221A602F4B2F4A1A602F4B992212041A602E4B2F4A1A602F4B2F4A1A602F4B992212041A603A
:4002C0002E4BF7221A602E4B2E4A1A602E4B2F4A1A602F4B17221A602E4B2E4A1278D2B202210A43D2B21A702B4B2B4A1278D2B20C218A43D2B204210A43D2B21A70254B0A
:40030000244A1278D2B216210A43D2B21A70FFF7D5FE00F075FFBD4602B080BD6CF02E40AC430100B8430100C443010000000240990000EE00030240000004400800044034
:400340003100D800180004400002044008020440400244000C02044000030440080304402400900000500F4020500F400400990024500F400000A08030500F402001204034
:40038000600120401B0B0000A00120405B0B0000E001204000700F4001700F4010B5064C2378002B07D1054B002B02D0044800E000BF0123237010BDC803002000000000D3
:4003C0001843010008B5084B002B03D00748084900E000BF07480368002B03D0064B002B00D0984708BDC0460000000018430100CC030020C80000200000000080B500AF8F
:4004000062B600F02FF8012001F014FA012002F0A5FA012002F0D6FA04F0F8FF0E4B1B78012B0AD100F02CF900F048F90B4B1B78002B04D000F028F801E000F0DFFB084BBE
:400440001B78002B06D0064B00221A70002000F04DFFD8E7D7E7C046E6030020E7030020E803002080B500AF01F0E0FB01F028FE01F05CFE01F086FE024B181C00F0EEFE0A
:40048000BD4680BD3505000080B582B000AF254B1B88013B9AB2234B1A80224B1B88002B3DD1204B012252421A801F4B1B781A1C1E4B9200D358181C02F06CFE031CDAB270
:4004C0001B4B1B789A421DD0174B1B781A1C174B9200D358181C02F05DFE031CDAB2FB1D1A70FB1D181C00F0A9F80F4B1B781A1C0E4B9200D358181C02F04CFE031CDAB2F1
:400500000B4B1A70084B1B780133DAB2064B1A70054B1B78042B02D9034B00221A70BD4602B080BDCC000020E403002008250020E503002080B584B000AF786039607B68CD
:40054000272B00D163E00BD8022B00D161E002D8012B12D05EE0052B54D0262B11D059E0422B29D004D8282B14D0412B16D051E04C2B30D0712B41D04CE0284B01221A70A2
:4005800048E0274B1B78042B03D1244B01221A7040E03FE0214B01221A703BE0214A3B68111C1A1C0223081C111C1A1C04F019FF1D4B01221A702DE01B4B00221A701B4BB9
:4005C00000221A701A4B01221A7000F077F8194B01221A701EE03B68FB60FB689B890F2B07D1FB685B681A78104B1A70104B01221A700C4B18680EF0B7FE0BE00D4B0022A4
:400600001A7007E03B681A780B4B1A7002E0C04600E0C046BD4604B080BDC046E80300202425002004250020E6030020E7030020E9030020D0000020EA03002080B586B028
:4006400000AF78600C4B1B78002B12D13B1C0C330E221A813B1C0C337A681A603B1C0C3301229A80054B3A1C0C321868111C0EF031FEBD4606B080BDEA03002004250020CB
:4006800080B500AF094B1B78002B0DD0084B1B78002B09D0064B00221A70064B1A78064B101C191C0BF0CCFFBD4680BDE6030020D000002004250020D400002080B584B046
:4006C00000AF124B1B78002B1DD0104B00221A700F4B1A783B1C0C331A703B1C0C3300225A703B1C0F221A813B1C3A1C0C321A603B1C02229A803A1C064B101C00211A1C67
:4007000000230FF06FFABD4604B080BDE9030020E70300200425002090B589B000AF01F087FC01F049FC01F02DFC3B1C1F3300221A703B1C1E3300221A700023BB610023DF
:400740007B613B1D00221A703B1C1333E3221A703B1D3A1C133212781A703B1C00221A703B1C00225A703B1D4020191C0122022301F0E4FA031CFB60C04601F037FC021C5A
:4007800002231340F9D03B1C4020191C0222012301F062FB031CBB60C04601F027FC021C01231340F9D03B1C1F333A1C52781A703B1C1E333A1C12781A703B1C1E331B7824
:4007C0001A023B1C1F331B78D318181C03F04CFA031CBB61B86904F0DBFB031C0C1C181C211C124B104A03F00FFE031C0C1C181C211C0F4A0F4B03F0E3FA031C0C1C181CFE
:40080000211C0D4A0D4B04F08FF8031C0C1C181C211C04F00FFC031C7B617B69181CBD4609B090BDC046C046D7A3703D0AF76540000000000000F040CDCCCCCCCC6C474085
:4008400080B588B000AF01F0F3FB01F0B5FB01F099FB3B1C1F3300221A703B1C1E3300221A700023BB6100237B613B1D00221A703B1C1333E5221A703B1D3A1C13321278C1
:400880001A703B1C00221A703B1C00225A703B1D4020191C0122022301F050FA031CFB60C04601F0A3FB021C02231340F9D03B1C4020191C0222012301F0CEFA031CBB6063
:4008C000C04601F093FB021C01231340F9D03B1C1F333A1C52781A703B1C1E333A1C12781A703B1C1E331B781A023B1C1F331B78D318181C03F0B8F9031CBB61B8690A49AB
:4009000002F0F2FE031C181C8F21C90502F0C6FD031C181C054903F011F8031C7B617B69181CBD4608B080BD0000FA420000C04080B584B000AF7860396001F0F7FB5A2085
:4009400001F00AFC324B1B68181C01F0ABFCC04601F0DCFB031C022BFAD93B1C0F3300221A703B1C0E3300221A7047E001F078FC021C3B1C0D331A703B1C0D331B780D2B11
:400980000DD03F2B12D0002B15D101F0BFFB031C002B03D1322001F0FBF828E027E03B683A1C0F3212781A7001232DE03B6800221A70012328E03B1C0D331B78392B16D879
:4009C0003B1C0D331B782F2B11D93B1C0F331B787A68D3183A1C0D321278303AD2B21A703B1C0F333A1C0F32127801321A703B1C0E333A1C0E32127801321A703B1C0E3375
:400A00001B784A2BB2D90123181CBD4604B080BDDC00002080B586B000AF021C3960FB1D1A702C4B3B6101F081FB3B69181C01F039FCFB1D1B78181C01F08EFB264B1B689D
:400A4000181C01F02FFCC04601F060FB031C022BFAD93B1C173300221A703B1C163300221A702DE001F0FCFB021C3B1C0F331A703B1C0F331B780D2B07D03F2B0CD0002B3A
:400A800011D1322001F084F813E03B683A1C173212781A70012319E03B683A1C0F3212781A70012312E03B1C17333A1C0F3212781A703B1C16333A1C1632127801321A70FA
:400AC0003B1C16331B78312BCCD90123181CBD4606B080BD84430100DC00002080B582B000AF021C3960FB1D1A70FB1D1B78072B22D89A00134BD3181B689F463B68012259
:400B00001A70012319E03B6804221A70022314E03B6803221A7002230FE0FB1D01221A7004230AE0FB1D01221A700B2305E0FB1D01221A70032300E00123181CBD4602B0B6
:400B400080BDC0468843010080B584B000AF78600A1CFB1C1A703B1C0C3300221A803B1C0B3300221A703AE03B1C0B331B787A68D3181A783B1C0C331A803B1C0A33012294
:400B80001A7010E03A1C0C323B1C0C331B88191C8900CB18DB1813803B1C0A333A1C0A32127801321A703B1C0A331A78FB1C19783B1C0B331B78CB1A9A42E3DB3B1C0E334D
:400BC000391C0E313A1C0C32098812888A181A803B1C0B333A1C0B32127801321A703A1C0B32FB1C12781B789A42BDD33B1C0E331B88181CBD4604B080BDC04690B58FB0D7
:400C000000AF914B1B685A1E8F4B1A608E4B1B68002B00D014E101F0F9FE031CDB43DBB2181C01F0CFFE884B884A1A60884B1B78022B19D002DC012B07D0FAE0032B00D195
:400C40008DE00B2B00D19FE0F3E0824B1B78012B0AD0804B1A78804B101C191CFFF73EFF031C1A1C7A4B1A7001F09EFE031CDB43DBB2181C01F072FE00F004F9774B7B636F
:400C8000774B3B63774BFB62774BBB62774B7B62774B3B62774B1B68181C03F041F8031C181C754902F0FAFB031CFB61734B1B68181C03F035F8031C181C6F4902F0EEFB45
:400CC000031CBB61F869F96902F00EFD031C181CF96902F009FD031C181C796B02F004FD031C1C1CF869F96902F0FEFC031C181C396B02F0F9FC031C201C191C02F062FA60
:400D0000031C1C1CF869F96A02F0EEFC031C201C191C02F057FA031C181CB96A02F052FA031C1A1C564B1A60B869B96902F0DCFC031C181C796A02F0D7FC031C1C1CB86945
:400D4000396A02F0D1FC031C201C191C02F03AFA031C1A1C4A4B5A603D4B03221A7001F055FE031CDB43DBB2181C01F02BFEFFF7D3FC021C424B9A60FFF762FD021C404BBC
:400D8000DA60334B0B221A7000F07AFD031CDB43DBB2181C00F04EFD3B1C0F3300221A703B1C0F333220191CFFF734FE3B1C0F331B78322B05D03B1C0F333220191CFFF723
:400DC00029FE3B1C083300221A703B1C083300225A703B1C083300229A703B1C08330022DA703B1C083300221A713B1C08337B617A69FB1D101C191CFFF79AFDFB1D1B7813
:400E00007A69101C191CFFF79FFE031C3B61386902F086FF021C1A4B1A61012001F0D2FD012001F09BFD012000F004FD084B01221A70074B1B780C2B02D9054B01221A7079
:400E4000BD460FB090BDC046E00000209CFF6300E4000020E5000020E600002052491D3A728A0EBD48E11A3F39D6853E97FF90BC6154823FEC03002000BA5B4AF00300206A
:400E800008250020B0B582B000AF6C4B00221A606B4B00221A6000237B607B68181C01F049FB7B68181C01F079FAFF2001F030FD01F016FB01F048FA01F0DEFB01F090FC7C
:400EC0000920102101F076FB002001F067FA002001F030FBC04601F03BFB031C002BFAD10920002101F066FB0920002101F062FB0920082101F05EFB0920182101F05AFBCE
:400F0000FB1C01221A70BB1C01221A7053E001F0E3FC031C002B07D1FB1C1B78002B17D0FB1C00221A7013E0FB1C1B78002B0FD101F0E8FB041C01F099FC031C1B04E2186B
:400F40003E4B1B68D2183D4B1A60FB1C01221A7001F0D0FC031C002B07D1BB1C1B78002B20D0BB1C00221A701CE0BB1C1B78002B18D1BB1C01221A7001F004FB041C01F0CF
:400F80000DFB031CE41A01F031FA051C01F03AFA031CEB1A2B4A5343E218294B1B68D218274B1A6001F0D4FA041C01F005FA031C1B04E3187B607A68234B9A42A7D91F4BBB
:400FC0001A68224B9A4202D91C4B204A1A601C4B1A681E4B9A4202D9194B1C4A1A60174B1B68002B02D1154B01221A60144B1B68002B02D1124B01221A600920102101F0AE
:40100000D9FA012001F096FA012001F0C7F90920002101F0CFFA0920002101F0CBFA01F08DFC01F06FFA01F0A1F901F037FB01F0E9FB0123181CBD4602B0B0BDEC03002085
:40104000F0030020DCFF0000FF94BA0A002A751580B500AFFEE7C04680B586B000AF224B7B61224B3B61204B7B6135E03B691B68FB603B695B68BB603B699B683B60002377
:401080007B600CE0FB681A68BB681A60BB680433BB60FB680433FB607B6804337B607A683B689A42EED13B69DB683B6000237B6008E0BB6800221A60BB680433BB607B68E9
:4010C00004337B607A683B689A42F2D13B6910333B617B69013B7B617B69002BC6D104F04BF9FFF78BF9FEE701000000EC48010080B582B000AF154B144A126801218A438B
:401100001A6000237B600FE07B68032B04D8104B7A689200D35800E00E4B0F4A796889008B507B6801337B607B682F2BECD9FFF761F80A4B00221A60044B044A126801211D
:401140000A431A60BD4602B080BDC04600001040000000005110000000000020C000002080B582B000AF786039607A683B68101C00211A1C04F03EF9BD4602B080BDC0464D
:4011800080B586B000AF7860396000233B6100237B612EE07B699B007A68D3181B68BB603B1C0F33BA681A70BB68FF229343BB6017E03B695B003A68D3181B781A1CBB6805
:4011C000D3183A69520039688A1852781A703B6901333B613B1C0F331A783B1C0F33013A1A703B1C0F331B78002BE2D17B6901337B617B69022BCDD9BD4606B080BDC046CA
:4012000080B500AF054B03221A60054B03221A60044B00221A60BD4680BDC0463000304030003140000E3F4080B500AF064B00221A70064B00221A70054B00221A7000F023
:4012400009F8BD4680BDC0462C2500202A2500202B25002080B500AFBD4680BD90B585B000AF78603B1C0E3301221A80194B1B78002B04D1FFF7D8FF164B01221A707B68A8
:40128000002B1FD0144B7A681A603C1C0E34134A134B101C191C172204F0CEF8031C23803B1C0E331B88002B0CD10E4B01221A703C1C0E340C4B181C102113220EF07AFCA6
:4012C000031C23803B1C0E331B88181CBD4605B090BDC046F80300201C250020AD15000020040020242500209444010090B585B000AF021CFB1D1A702A4B1B78042B44D1B9
:40130000294B1B78DBB21A1C042313403DD1FB1D1B78002B0DD1254B1E221A82234B5B68902252001A80214B5B68A02252005A8010E0FB1D1B78012B0CD11C4B96221A8210
:401340001A4B5B68C822D2001A80184B5B68FA2212015A80164BFA1D12781A703C1C0E34124B181C0CF080FE031C23803B1C0E331B88002B08D10C4B1B78DBB2042213439B
:40138000DAB2094B1A7005E004E03B1C0E33832252001A803B1C0E331B88181CBD4605B090BDC046242500202C250020380100202B25002080B582B000AF78607B681B7850
:4013C0001A1C7B6801331B781B029BB213439BB2181CBD4602B080BD90B585B000AF78603B1C0F3300221A707B689A890B239A4237D17B681A1D7B683C1C0F34101C002197
:401400001A1C40230EF0EEFB031C23703B1C0F331B78002B1DD17B685B68181CFFF7CAFF031C1A1C022313409BB2002B08D0104B1B68822251007A68081C111C984708E0B2
:401440000B4B1B680622111CFF317A68081C111C9847084B1B78DBB201229343DAB2054B1A703B1C0F331B78181CBD4605B090BD1C2500202C25002090B585B000AF7860F2
:401480003C1C0F347B68181CFFF7A6FF031C2370144B1B78DBB21A1C012313401FD13B1C0F331B78002B16D03B1C083312229A707B689A893B1C08331A803B1C08333A1CEA
:4014C0000F321278DA707B683A1C08321868111C0DF0E2FE03E07B6818680DF045FFBD4605B090BD2C25002080B582B000AF7860BD4602B080BDC04680B500AF034B0022A3
:401500005A70024B00221A70BD4680BD2825002080B582B000AF7860BD4602B080BDC04680B500AFBD4680BD80B584B000AF78603B1C0E3300221A707B689B79002B1CD1EE
:401540003B1C0F3300221A7012E03B1C0F331B787A68D35C002B04D03B1C0E3301221A700BE03B1C0F331A783B1C0F3301321A703B1C0F331B78052BE7D93B1C0E331B7800
:40158000181CBD4604B080BD80B582B000AF021CBB1D1A80BD4602B080BDC04680B582B000AF7860BD4602B080BDC04680B584B000AF021C3960FB1D1A70904B1B78DBB213
:4015C00001221343DAB28D4B1A70FB1D1B78712B00D9F7E09A008A4BD3181B689F463B1C0C3304221A703B1C0C3300225A703B1C0C33181C05F082F93B1C0C3301225A7046
:401600003B1C0C33181C05F079F97E4B1B68181CFFF78AFF031C002B05D07A4B1B68181C03F0F8FE0FE0784B1A78784B1A70784B1A78764B5A70774B1A78744B9A70734BAA
:40164000181C03F0E7FE03200CF0D0FB724B04221A70B8E03B68181CFFF75AFFB3E03B681A786E4B1A70AEE0644B1B78DBB21A1C202313400ED16A4B1B78102B02D1684B2D
:401680000522DA70674B1A78654B101C191C0CF0B5FC98E097E03B68181CFFF77FFF92E03B68181CFFF77AFF5B4B02221A708AE0594B04221A7086E0574B1B78022B34D0E7
:4016C0004E4B1B78DBB21A1C012313402DD04B4B1B78DBB21A1C042313400BD04E4B03221A70464B1B78DBB204229343DAB2434B1A701AE0414B1B78DBB21A1C0823134053
:401700000BD0454B04221A703C4B1B78DBB208229343DAB2394B1A7007E03F4B1B78032B03D13D4B04221A704DE04CE03B681B88181CFFF729FF46E03A4A3B68111C1A1C6E
:401740000223081C111C1A1C03F04BFE354B1B789A00354BD318354A111C1A1C0423081C111C1A1C03F03DFEFFF7DAFE2BE0FFF7C3FE28E03B685B88162B05D83B1C0E33D7
:401780003A6852881A8003E03B1C0E3317221A803B683A1C0E321288198800230904090C1B0C1B040B43181C111C0DF081FD0AE03B68181CFFF760FE05E03B68181CFFF7D5
:4017C00093FE00E0C0460D4B1B78DBB21A1C112313400FD0094B1B78DBB201229343DAB2064B1A70124B1B68FA1D11783A68081C111C9847BD4604B080BDC0462C250020CD
:4018000000460100040100207CF1FF0FFC0000207DF1FF0F7BF1FF0F242500202A250020840100202825002080440100202500201C25002080B584B000AF021CFB1D1A7062
:401840000E4B1B68DAB23B1C0F3340218A431A70FB1D1B789B01DAB240231340D9B23B1C0F333A1C0F3212780A431A70034B3A1C0F3212781A60BD4604B080BD00020440E7
:4018800080B500AF044B1A68402313409B09DBB2181CBD4680BDC04604020440000000000230800803D00138FDD1C046C046C0467047EFF3108072B6704780F31088704758
:4018C00080B500AF0B4B0B4A126801218A431A60094B094A126830218A4310210A431A60054B054A126807218A4301210A431A60BD4680BD00F02E4000FF2E4080B500AF59
:401900000E4B0E4A126802218A431A600C4B0C4A126807218A4302210A431A60084B084A126830218A4320210A431A60034B034A126801210A431A60BD4680BD00F02E402B
:4019400000FF2E4080B584B000AF78600023FB60154B154A126801210A431A60134B144A1A60144B134A1268802109020A431A607B68002B13D01023FB600DE0012000F00E
:401980002BF900F019F8031C002B02D00023FB6005E07B68013B7B607B68002BEED1FB68181CBD4604B080BD60F02E4078002E400220000010002E4080B500AF034B1A6839
:4019C00001231340181CBD4680BDC0460C002E4080B500AFFFF774FF044B044A1268802109060A431A60BD4680BDC04600F02E4080B584B000AF78600C4B1A6801231340BD
:401A0000FB607B68002B02D0012B03D005E0FFF757FF06E0FFF772FF03E0002000F0AEF8C046FB68181CBD4604B080BD00F02E4080B584B000AF021C3960FB1D1A70802352
:401A40009B05FB60FB1D1B781F2B02D9002000F095F8FB1D1B7810339B00FA68D3181B68BB60FB1D1B7810339B00FA68D3183A681A60BB68181CBD4604B080BD90B587B0D1
:401A800000AF0A1CFB1D011C1970BB1D1A70BB1D1B78032B02D9002000F070F8FB1D1B781F2B02D9002000F069F8FB1D1A7803231340DB0006337B613C1C1334FFF7F9FE65
:401AC000031C2370FB1D1B789B08DBB29B0014495B181B68FB607B690322111C99400B1CDA43FB681340FB60BB1D1A787B69111C99400B1CFA681343FB60FB1D1B789B08D0
:401B0000DBB29B00064A9B18FA681A603B1C13331B78181CFFF7D1FEBD4607B090BDC04600E400E080B582B000AF021CFB1D1A70064BFA1D11781F220A400121081C90403C
:401B4000021C1A60BD4602B080BDC04600E100E080B582B000AF021CFB1D1A70064BFA1D11781F220A400121081C9040021C1A60BD4602B080BDC04680E100E080B582B074
:401B800000AF021CFB1D1A7001BEBD4602B080BD80B582B000AF786008E00C4B1B68181CFFF77EFE7B680A4A9B187B607A6880231B029A42F1D8074B1B687A685343181C22
:401BC000FFF76EFEBD4602B080BDC046940100200080FFFF8C01002080B582B000AF021CBB1D1A80BB1D1B88044A12785343181CFFF756FEBD4602B080BDC04690010020F5
:401C000080B500AF00F02CF8BD4680BD80B500AF054B054A1268802109060A431A6000F017F8BD4680BDC0460000244080B500AF064B1B78002B04D1FFF7E2FF034B01223F
:401C40001A70FFF7E3FFBD4680BDC046B810002080B500AF0920FFF765FFBD4680BDC04680B500AF214B802212011A60204B214A1A60214B214A1A60214B00221A60214B93
:401C800000221A60204B1D4A1A60204B00221A600920FFF75DFF09200321FFF7EFFE1C4B0920191CFFF7C4FE1A4B00221A601A4B00221A60194B00221A60194B1422FF3240
:401CC0001A60184B00221A60174B00221A60174B10221A70164B00221A80164B00221A60154B00221A60BD4680BDC0460000244060002440770800800003244007010080DD
:401D000004032440100324400002244004022440292A0000C80E2440880E2440480F2440080F2440C80F2440880F24402D2500203A250020402500203425002080B586B0A4
:401D400000AFF860B9607A603B6004237B61BB68002B20D0324B1B78DBB2102B0CD10920FFF7F6FE2F4B1A680123134001D0082300E000237B610EE0294B1B78DBB2602B6A
:401D800009D1294B1B889BB2082293439AB2264B1A8000237B617B69002B38D1204B28221A70224B00221A60214B00221A60214B7A681A60204BBA681A603B68DAB21F4BBF
:401DC0001A70FB685A00FF231340FB60164B1B889BB2022293439AB2134B1A80184B194A1A60194B40221A603A680123134005D000F036F9154BFA681A6005E0134BFA68CF
:401E00001A60134B02221A60124B40221A600920FFF788FE7B69181CBD4606B080BDC0462D250020640024403A25002030250020342500203C25002044250020382500200C
:401E4000000F244017030000800F24404002244068002440880F244080B586B000AFF860B9607A603B6004237B61BB68002B20D0374B1B78DBB2102B0CD10920FFF768FEF5
:401E8000344B1A680123134001D0082300E000237B610EE02E4B1B78DBB2602B09D12E4B1B889BB2082293439AB22B4B1A8000237B617B69002B43D1254B29221A70274B45
:401EC00000221A60264B7A681A60264BBA681A603B68DAB2244B1A70FB685A00FF23134001221343FB601C4B1B889BB2012293439AB2194B1A801D4B1D4A1A603A68012395
:401F0000134005D000F0ACF81A4BFA681A6005E0184BFA681A60184B02221A60104B1B680F2B03D8154B04221A6009E0144B144A1268802149000A431A60104B08221A60BC
:401F40000920FFF7EFFD7B69181CBD4606B080BD2D250020640024403A250020402500204C2500204825002038250020000F2440170300004002244068002440C80F244035
:401F80006000244080B500AF0920FFF7E1FD084B00221A60074B1B889BB2012293439AB2044B1A800920FFF7BDFDBD4680BDC046402500203A25002080B500AF0920FFF7F7
:401FC000C7FD084B00221A60074B1B889BB2022293439AB2044B1A800920FFF7A3FDBD4680BDC046342500203A25002080B582B000AF0920FFF7ACFD0B4B1B889BB27B60C1
:402000000A4B1B78DAB220231340DBB2002B03D07B68042213437B600920FFF783FD7B68181CBD4602B080BD3A2500202D25002080B582B000AF0920FFF78AFD074B1B8887
:402040009BB27B60054B00221A800920FFF76AFD7B68181CBD4602B080BDC0463A25002080B582B000AF01237B60084B1A682023134001D0082300E000237A6813437B6086
:40208000034B7A681A60BD4602B080BD640024406800244080B500AF00F08AF8BD4680BD80B500AF054B054A1268802109060A431A6000F017F8BD4680BDC046000025403C
:4020C00080B500AF064B1B78002B04D1FFF7E2FF034B01221A70FFF7E3FFBD4680BDC046C010002080B500AFBD4680BD80B582B000AF00237B60044B1B687B607B68181C3C
:40210000BD4602B080BDC0464003254080B582B000AF054B1A681F2313407B607B68181CBD4602B080BDC0460803254080B500AF074B074A1268802149020A431A60044B25
:40214000034A1168034A0A401A60BD4680BDC04604032540FFFFFEFF80B582B000AF7860C046064B1A681F231340102BF9D0044B7A681A60BD4602B080BDC0460802254069
:402180004002254080B500AF074B074A1268802149020A431A60044B034A1168034A0A401A60BD4680BDC04604022540FFFFFEFF80B500AF184B194A1A60194B00221A60CE
:4021C000184B01221A60184B184A1A60184B07221A60184B00221A60174B01221A60174B124A1A60164B00221A60164B04221A60154B00221A60154B00221A60144B0022ED
:402200001A60144B00221A60134B00221A60134B00221A60BD4680BD000025400708000240002540480025400003254007000080040325401003254044002540000225404A
:402240000402254050002540880E2540C80E2540480F2540080F2540C80F2540880F254080B582B000AF00237B60FFF74FFF031C002B03D0FFF73AFF031C7B60084B1A6825
:40228000D8239B00134005D000237B60044BD82292001A607B68181CBD4602B080BDC046C00F254080B584B000AF78600023FB6009E07A68FB68D3181B78181CFFF74CFF3B
:4022C000FB680133FB607A68FB68D3181B78002BEFD1BD4604B080BD80B500AF094B802292041A60084B12221A60002000F0B4F8064B181C00F06CF8002000F04FF8BD4670
:4023000080BDC0460001204024012040FFFF000090B583B000AFFC1DFFF7CBFA031C2370084B084A126801210A431A60FB1D1B78181CFFF7C2FA0120182100F06FF8BD467C
:4023400003B090BD0000204080B500AF064B1B78002B04D1FFF7C0FF034B01221A70FFF7D7FFBD4680BDC046C810002090B583B000AFFC1DFFF79DFA031C2370064B064A5B
:40238000126801218A431A60FB1D1B78181CFFF794FABD4603B090BD0000204080B582B000AF7860034B7A681204120C1A60BD4602B080BD0801204080B500AF034B1B6898
:4023C0001B041B0C181CBD4680BDC0460801204080B582B000AF7860034B7A681204120C1A60BD4602B080BD1401204080B500AF034B1B681B041B0C181CBD4680BDC0460C
:402400000C01204080B500AF034B1B681B041B0C181CBD4680BDC0461001204090B585B000AF786039603C1C0F34FFF742FA031C2370084B3A687968081C9040021C1A60CE
:402440003B1C0F331B78181CFFF737FABD4605B090BDC0460800204080B582B000AF7860024B7A681A60BD4602B080BD3801204080B500AF094B802292041A60084B1E22C3
:402480001A60002000F0B4F8064B181C00F06CF8002000F04FF8BD4680BDC046C0012040E4012040FFFF000090B583B000AFFC1DFFF7FFF9031C2370084B084A12680821E4
:4024C0000A431A60FB1D1B78181CFFF7F6F90820182100F06FF8BD4603B090BD0000204080B500AF064B1B78002B04D1FFF7C0FF034B01221A70FFF7D7FFBD4680BDC046AC
:40250000C910002090B583B000AFFC1DFFF7D1F9031C2370064B064A126808218A431A60FB1D1B78181CFFF7C8F9BD4603B090BD0000204080B582B000AF7860034B7A684E
:402540001204120C1A60BD4602B080BDC801204080B500AF034B1B681B041B0C181CBD4680BDC046C801204080B582B000AF7860034B7A681204120C1A60BD4602B080BD36
:40258000D401204080B500AF034B1B681B041B0C181CBD4680BDC046CC01204080B500AF034B1B681B041B0C181CBD4680BDC046D001204090B585B000AF786039603C1CAC
:4025C0000F34FFF776F9031C2370084B3A687968081C9040021C1A603B1C0F331B78181CFFF76BF9BD4605B090BDC0460800204080B582B000AF7860024B7A681A60BD4658
:4026000002B080BDF801204080B500AF094B802292041A60084B1C221A60002000F09CF8064B181C00F060F8002000F04FF8BD4680BDC0464001204064012040FFFF0000EB
:4026400090B583B000AFFC1DFFF733F9031C2370084B084A126802210A431A60FB1D1B78181CFFF72AF90220182100F057F8BD4603B090BD0000204080B500AF064B1B7880
:40268000002B04D1FFF7C0FF034B01221A70FFF7D7FFBD4680BDC046CA10002090B583B000AFFC1DFFF705F9031C2370064B064A126802218A431A60FB1D1B78181CFFF71E
:4026C000FCF8BD4603B090BD0000204080B582B000AF7860034B7A681204120C1A60BD4602B080BD4801204080B582B000AF7860034B7A681204120C1A60BD4602B080BD5E
:402700005401204080B500AF034B1B681B041B0C181CBD4680BDC0464C01204090B585B000AF786039603C1C0F34FFF7C2F8031C2370084B3A687968081C9040021C1A60C9
:402740003B1C0F331B78181CFFF7B7F8BD4605B090BDC0460800204080B582B000AF7860024B7A681A60BD4602B080BD7801204080B500AF094B802292041A60084B102210
:402780001A60002000F09CF8064B181C00F060F8002000F04FF8BD4680BDC04680012040A40120407615000090B583B000AFFC1DFFF77FF8031C2370084B084A126804217D
:4027C0000A431A60FB1D1B78181CFFF776F80420182100F057F8BD4603B090BD0000204080B500AF064B1B78002B04D1FFF7C0FF034B01221A70FFF7D7FFBD4680BDC04646
:40280000CB10002090B583B000AFFC1DFFF751F8031C2370064B064A126804218A431A60FB1D1B78181CFFF748F8BD4603B090BD0000204080B582B000AF7860034B7A684F
:402840001204120C1A60BD4602B080BD8801204080B582B000AF7860034B7A681204120C1A60BD4602B080BD9401204080B500AF034B1B681B041B0C181CBD4680BDC046A7
:402880008C01204090B585B000AF786039603C1C0F34FFF70EF8031C2370084B3A687968081C9040021C1A603B1C0F331B78181CFFF703F8BD4605B090BDC0460800204022
:4028C00080B582B000AF7860024B7A681A60BD4602B080BDB801204080B500AF044B1A68042313409B08DBB2181CBD4680BDC0460402044080B500AF044B1A6808231340E0
:40290000DB08DBB2181CBD4680BDC0460402044080B582B000AF7860C046064B1B68002BFBDB044B7A68120203490A431A60BD4602B080BD000001404000008080B500AF6B
:40294000C046044B1B68002BFBDB024B024A1A60BD4680BD000001404000004080B584B000AF021CFB1D1A700E4B1B68DAB23B1C0F3340218A431A70FB1D1B789B01DAB206
:4029800040231340D9B23B1C0F333A1C0F3212780A431A70034B3A1C0F3212781A60BD4604B080BD0003044080B500AF044B1A68402313409B09DBB2181CBD4680BDC0460B
:4029C0000403044080B584B000AF021CFB1D1A700D4B1B68D9B23B1C0F337F220A401A70FB1D1B78DB01D9B23B1C0F333A1C0F3212780A431A70044B3A1C0F3212781A60B3
:402A0000BD4604B080BDC0460003044080B500AF044B1A6880231340DB09DBB2181CBD4680BDC0460403044080B582B000AF00233B60C54B1B68002B02D0C34B1B689847A0
:402A4000C24B1A680123134002D0C14B00221A60C04B1B78DAB220231340DBB2002B3CD0BD4B1A6880235B0013400AD0BB4B1B889BB2C022920013439AB2B84B1A800123D0
:402A80003B60B54B1A68012313400AD0B34B1B889BB29022920013439AB2B04B1A8001233B603B68002B18D0AA4B1B78DAB201231340DBB2002B01D0012300E00223A74A9C
:402AC000128892B291B21A1C0B1C13439BB29AB2A24B1A809F4B00221A709E4B1B78DAB220231340DBB2002B00D1AEE19A4B1A68102313401CD09A4B10221A60954B1B78B9
:402B0000DAB201231340DBB2002B01D0012300E00223924A128892B291B21A1C0B1C13439BB29AB28D4B1A808A4B10221A70B0E1884B1B78DAB208231340DBB2002B29D0E2
:402B4000854B1A68022313400ED0854B02221A60824B1B889BB28822920013439AB27F4B1A8001233B6015E07A4B1B78DAB201231340DBB2002B03D0764B25221A7009E02B
:402B8000744B24221A70774B1B68002B02D0764B10221A606F4B1B78DAB204231340DBB2002B00D115E16B4B1B78DAB201231340DBB2002B5CD06D4B1A680823134034D019
:402BC0006B4B1A686B4B19681F2319406A4B1B68CB18D31A7B607B68102B02D910237B600DE07B68002B0AD1644B644A1168644A0A401A6010237B6001233B6011E010E015
:402C0000604B1A685C4B1B68D2185F4B1B68DBB21370594B1B685A1C574B1A607B68013B7B607B68002BEBD11EE0504B1A680423134019D0534B1A684F4B1B68D218524B57
:402C40001B68DBB213704C4B1B685A1C4A4B1A60494B1A68464B1B689A4203D24B4B04221A6001E001233B60494B4A4A1A60B0E0394B1A680223134032D0394B02221A609D
:402C8000454B1A68454B19681F231940434B186880231B02034001D0012300E00023CB18D21A3D4B1A603C4B1A683D4B1A602B4B1B889BB28422920013439AB2274B1A8025
:402CC000384B384A1268802149020A431A60354B344A1168344A0A401A6001233B6078E0324B1A681023134068D022E02A4B1A681C4B1B689A421BD21A4B1B685A1E264B98
:402D00001B689A4205D12A4B40221A60164B40221A60284B284A11681F4A12688A181278D2B21A601C4B1B685A1C1B4B1A6000E005E01A4B1A681F231340102BD6D11C4B9B
:402D400010221A6045E0C046BC1000208C0E2440880E24402D2500200C0F24403A250020000F24403C250020880F2440CC0F24404C250020080324404025002060002440B1
:402D8000FFFEFFFF482500204003244068002440C00F2440ED0F000030250020080224403425002004022440FFFFFEFF8C0F2440800F24404002244044250020364B1A6804
:402DC0004023134005D0354B1A68354B1A6001233B603B68002B5CD0324B324A1168324A0A401A60314B00221A60314B00221A60304B1B78DAB202231340DBB2002B19D0FE
:402E00002D4B1B78DAB201231340DBB2002B01D0092300E00A23294A128892B291B21A1C0B1C13439BB29AB2244B1A80224B60221A702EE0224B234A116820220A4001D0A2
:402E4000182200E010221A6023E01B4B1B78DAB210231340DBB2002B1BD11B4B1A4A1268520052081A60144B10221A700D4B0D4A1168164A0A401A600A4B0A4A1168144A89
:402E80000A401A60104B104A1268802109060A431A60BD4602B080BD8C0F2440302500203425002060002440FFFEFFFFC80F2440880F2440382500202D2500203A25002066
:402EC000680024406400244000002440FF5FFFFFFFFCFFFF80B582B000AF78600A1CBB1C1A80BB1C1A887B681A60BD4602B080BD80B582B000AF78600A1CBB1C1A80BB1CDC
:402F00001A887B681A60BD4602B080BD80B582B000AF021CBB1D1A80BB1D1B88181CFEF75BFEBD4602B080BD80B500AF00F068F8BD4680BD80B500AF00F06CF8BD4680BD1F
:402F400080B500AF00F066F8044B181C00F024F8032000F02DF8BD4680BDC0462930000080B500AF024B181C00F004F8BD4680BD2930000080B582B000AF786000F04AF8AF
:402F80007B68181C00F008F8032000F011F800F037F8BD4602B080BD80B582B000AF7860024B7A681A67BD4602B080BD0000002090B585B000AF021CFB1D1A700623FB60C0
:402FC0003C1C0B34FEF775FC031C23700B4B0B4A1268C021101C8843011CFA1D1078FA68041C9440221C0A431A603B1C0B331B78181CFEF762FCBD4605B090BD0CE400E08A
:4030000080B500AF024B802252011A60BD4680BD00E100E080B500AF024B802252011A60BD4680BD80E100E080B500AF11F060F9BD4680BD002934D00123002210B488424F
:403040002CD301242407A14204D2814202D209011B01F8E7E400A14204D2814202D249005B00F8E7884201D3401A1A434C08A04202D3001B5C0822438C08A04202D3001B4B
:403080009C082243CC08A04202D3001BDC082243002803D01B0901D00909E3E7101C10BC7047002801D00020C04307B4024802A14018029003BDC046D90000000029F0D067
:4030C00003B5FFF7B9FF0EBC4243891A1847C046002941D010B4041C4C40A44601230022002900D54942002800D5404288422CD301242407A14204D2814202D209011B01A2
:40310000F8E7E400A14204D2814202D249005B00F8E7884201D3401A1A434C08A04202D3001B5C0822438C08A04202D3001B9C082243CC08A04202D3001BDC08224300282F
:4031400003D01B0901D00909E3E7101C6446002C00D5404210BC7047002806D003DB0020C043400801E08020000607B4024802A14018029003BDC046190000000029EBD0AC
:4031800003B5FFF7A7FF0EBC4243891A1847C0467047C0469E2110B5C905041C02F006F8002803D1201C00F03FFD10BD9E21C905201C00F0C3FB00F037FD80231B06C018DD
:4031C000F3E7C046F8B543024400C50F4E024800240E2A1C9B09000EC90FB6098D425BD0221A002A00DC89E000281DD1002E00D075E0580704D00F221A40042A00D004338B
:403200008021C90419402A1C00293AD00134FF2C00D17FE09B015B0A5B02E4B2E405580AD20720431043F8BDFF2CE2D08021C9040E431B2A00DD2DE1311C2020D140821A35
:403240009640721E96410E439B1B5801D1D59B019F09381C01F0B4FF421F974094425BDC141B1F231B1B3A1C9F40611C3B1CCA405F1EBB4113430024BBE7131EB9D100235D
:403280000022DB08FF2C04D1002B43D08020C00303435B025B0ABFE7211A002940DD002823D0FF2CA5D08020C00406431B2900DDEEE0301C2027C840791A8E40711E8E4188
:4032C00006439B19590100D493E70134FF2C55D0714901221A400B405B08134389E7013A002AB1D0FF2CA4D183E7002E00D180E701390029E5D0FF2CD8D17AE7002A1BD140
:40330000621CD2B2012A4BDD9F1B7A0123D5F71A0D1C9EE700237FE75F4BA41A3B4068E7002946D1611CC8B2012829DDFF2924D0F3185B080C1C5CE7002C13D0FF2818D018
:403340008024E404524223431B2A4DDD0123F31A041C0D1C79E7002F00D07AE70023002200248EE7002B3BD0D243002AEFD0FF28EAD1331CFF240D1C3BE7FF24002380E7C0
:40338000002C5CD1002B00D180E0002E00D130E79B19580100D42CE73F4A0124134028E7002C15D1002B40D1002E63D0331C0D1C1FE7002C21D1002B54D0C943002904D09B
:4033C000FF284CD01B2958DD01239B19041C79E7002B19D1002E48D0331C0D1CFF2408E7331C041C0D1C04E71C1C2025D440AA1A93405A1E93412343A9E7FF282FD080241D
:40340000E40449422343DDE7FF24002E00D1F0E68022DB08D203134204D0F608164201D1331C0D1CDB00FF24E3E6002E00D1E0E69A1B500100D420E7F31A0D1CD9E6002B47
:403440000DD0FF24002E00D1D3E68022DB08D2031342E7D0F6081642E4D1331CE2E7331CFF24C6E6331C041CC3E6802300229B04FF2406E7231C002203E71C1C2027CC408B
:40348000791A8B40591E8B4123439EE7331CB0E6012616E70126D7E6FFFFFFFBF0B55F4656464D464446F0B446024500C00F85B00F1C760A2D0E804641D0FF2D26D08024E0
:4034C000240400212643F6007F3D89468B46F90F7C027800640A000E00918A463CD0FF2834D080231B041C430023E4007F380193009F4346019A7B4049469C4611430F29C8
:4035000000D971E0764F89007F58BF46002E3ED10822022391469B46D9E75A46341CC24601920199022937D0032900D1CFE0012900D0ABE053460B400022002632E0002E3F
:4035400019D10421012289469346C0E7221C531E9A4102320192CBE701270197002CC7D0201C01F02DFE431F9C4076235B420021181A0191BCE7301C01F022FE7625431F96
:403580009E406D4200232D1A99469B469FE70C23032199468B469AE7D446012367463B40FF2200267602D205700ADB071043184305B03CBC90469946A246AB46F0BD8026B6
:4035C0000023F603FF22EDE700220026EAE78020C00306423BD0044239D1061C26437602760A009BFF22DDE7281A039076016401A64239D3361B1A2201230120311C5B0079
:403600007600002901DBB44201D8361B0343013A002AF3DC741EA641341C1C43039A7F32002A27DD630704D00F232340042B00D00434270103D52B4B039A1C408032FE2A7E
:403640000BDD012361460B40FF220026AAE706437602760A4346FF22A4E7A40101236746660AD2B23B409DE7039F1B22013F03970023C2E77E23039F5B42DB1B1B2B07DD10
:40368000012361460B40002200268BE7D446C5E7221CDA40039B9E339C40231C5C1EA34113435A0704D00F221A40042A00D004335F0105D5012361460B400122002671E7F8
:4036C0009E01624601231340760A00226AE78026F60326437602760A5346FF2262E7C046C8470100FFFFFFF7F0B55F4656464D464446F0B44402460083B00F1C640A360EC9
:40370000C50F002E41D0FF2E22D080231B0400201C43E4007F3E82468046391C4B007F02C90F7F0A1B0E8B463BD0FF2B34D0802212041743FF007F3B00215A466A40019269
:4037400052460A430F2A63D87A48920082589746002C3FD10822022392469846DDE70195404602282AD1019A01251540FF2300246402DB05600AED071843284303B03CBC2E
:4037800090469946A246AB46F0BD002C27D10420012282469046C0E7391C4A1E91410231CBE70121002FC8D0381C01F009FD431F9F4076235B421B1A0021BEE7032800D108
:4037C000AEE001284FD1019842461040C5B200230024CDE70C2303209A4680469DE7201C01F0EEFC7626431F9C4076420023361A9A46984691E780240025E403FF23B7E7D1
:403800005B463C1C01938846AAE73C1C8846A7E7250C24043A0C240C3F04F6183F0C211C231C794353436F435543FB180A0C9B18B1469F4202D980225202AD1809041A04F0
:40384000090C521894011B0C611E8C41920EED181443AD012C43230105D5012263080120144081441C434B467F33002B2DDD600704D00F222240042A00D00434220103D50C
:403880002D4B1C404B468033FE2B17DD019B01251D400024FF236BE78020C003044208D0074206D1041C3C436402640A5D46FF235EE704436402640AFF2359E70198A40143
:4038C0000125640ADBB2054052E77E235B424A469B1A1B2B05DD019B01251D400024002346E7221CDA404B469E339C40231C5C1EA3411343580704D00F221A40042A00D0A6
:4039000004335A0105D5019B01251D40002401232EE701989C010125640A0540002327E78027FF03019B3C43640201251D40640AFF231DE708480100FFFFFFF7F8B5C20F5B
:40394000430244004D024800240E161C9B09000EC90FAD09FF2800D183E0012779408A425CD0221A002A00DC8EE000281ED1002D00D07AE0580704D00F221A40042A00D075
:4039800004338021C90401221940324000293AD00134FF2C00D183E09B015B0A5B02E4B2E405580AD20720431043F8BDFF2CE1D08021C9040D431B2A00DD31E1291C2020D7
:4039C000D140821A95406A1E95410D435B1B5801D0D59B019F09381C01F0F2FB421F974094425FDC141B1F231B1B3A1C9F40611C3B1CCA405F1EBB4113430024BAE7131EE5
:403A0000B8D100230022DB08FF2C04D1002B47D08020C00303435B025B0ABFE7211A002944DD002827D0FF2CA4D08020C00405431B2900DDF2E0281C2027C840791A8D40AD
:403A4000691E8D4105435B19590100D492E70134FF2C59D0734901221A400B405B08134388E7002D00D07AE777E7013A002AADD0FF2CA0D17EE7002D00D17BE701390029F7
:403A8000E1D0FF2CD4D175E7002A1BD1621CD2B2012A4BDD5F1B7A0123D5EF1A0E1C9AE700237BE75F4BA41A3B4063E7002946D1611CC8B2012829DDFF2924D0EB185B0883
:403AC0000C1C57E7002C13D0FF2818D08024E404524223431B2A4DDD0123EB1A041C0E1C75E7002F00D076E70023002200248AE7002B3BD0D243002AEFD0FF28EAD12B1CEB
:403B0000FF240E1C36E7FF2400237CE7002C5CD1002B00D180E0002D00D12BE75B19580100D427E73F4A0124134023E7002C15D1002B40D1002D63D02B1C0E1C1AE7002CA7
:403B400021D1002B54D0C943002904D0FF284CD01B2958DD01235B19041C75E7002B19D1002D48D02B1C0E1CFF2403E72B1C041C0E1CFFE61C1C2026D440B21A93405A1E34
:403B800093412343A9E7FF282FD08024E40449422343DDE7FF24002D00D1EBE68022DB08D203134204D0ED08154201D12B1C0E1CDB00FF24DEE6002D00D1DBE65A1B500189
:403BC00000D41CE7EB1A0E1CD4E6002B0DD0FF24002D00D1CEE68022DB08D2031342E7D0ED081542E4D12B1CE2E72B1CFF24C1E62B1C041CBEE6802300229B04FF2402E725
:403C0000231C0022FFE61C1C2027CC40791A8B40591E8B4123439EE72B1CABE6012512E70125D3E6FFFFFFFB4302590A4300C20F1B0E00207E2B0DDD9D2B0CDC802000046D
:403C40000143952B0ADC9620C31AD9404842002A00D1081C7047034BD018FBE7963B9940F4E7C046FFFFFF7F70B5041E3CD0C60F00D04442201C01F0A3FA9E23251C1B1AB0
:403C8000962B0CDC083884406402640ADBB2321C6402DB05600AD2071843104370BD992B0ADD0522121A211CD1400A1C011C1B318D40691E8D411543052801DD421F9540AE
:403CC000164C2C406A0704D00F221540042D00D0043461010CD59F23181AFF281AD0A401640AC3B2321CD3E7002200230024CFE7E408FF2B04D06402640ADBB2321CC7E7B4
:403D0000002C04D08020C00304436402640A321CFF23BDE7321CFF230024B9E7FFFFFFFB10B5041E33D001F04BFA9E231B1A962B09DC083884406402640ADBB26402DB055E
:403D4000600A184310BD992B0ADD0522121A211CD1400A1C011C1B318C40611E8C411443052801DD421F9440144A2240610704D00F210C40042C00D0043251010AD59F2386
:403D8000181AFF2816D09401640AC3B2D6E700230024D3E7D208FF2B03D05402640ADBB2CCE7002A06D08024E40314436402640AFF23C3E7FF230024C0E7C046FFFFFFFB46
:403DC000F0B5564644465F464D46F0B41F1C0B031B0B98464B0087B0041C81465B0DC80F161C9A460090002B51D06A4B9A4531D08022414652030A43630FD2001A43664B87
:403E000090460025E20091469A44002402953B031B0B9B46FD0F7B00311C5B0D019560D05C4A934254D08021584649030143720FC9001143584A8B469B18F1000020009A11
:403E400004436A4003920F2C00D9ADE0534EA4003459A746404604436ED1002102250824884689460295D2E7009C0298C34649460194022864D0032800D1ABE2012800D0AC
:403E800038E2019A002402400025A14660E0434623434AD04046002800D1C0E101F090F9031E272B00DDB3E128210D1A211C083B4246E9409A400D1C1543221C9A40A84612
:403EC0009146374B00251B1A9A46002402959EE75A4616430320002EB1D1B34600210220ADE75A4632431BD05B46002B00D18AE1584601F065F9272800DD7DE12822171A59
:403F0000011C321C08395B46FA408B40171C1F43331C8B40BB46191C214B1B1A00208EE70027BB460021012089E70020012504248046814602956AE703250C24029566E71B
:403F4000019C0394039D01222A400024114DA146002000212403260B0C0D2405114B34432D0523402B435B005B08D207191C4846114307B03CBC90469946A246AB46F0BD2E
:403F80000022802424039146024DE1E700240025A146DDE7FF07000001FCFFFF484801000DFCFFFFFFFF0F805546ED1A0495D84500D953E100D14EE1049C0025013C4E4611
:403FC00004944746A946584603020C0E1C430902250C23041B0C0091381C291C0193FFF729F8019983464143381C8A46291CFFF765F8330C090419438A450CD95B46091970
:40400000013B8C4200D947E18A4500D844E102225242934409195346CB1A181C291C9846FFF708F8071C0198291C784382464046FFF744F836040B04360C33439A4509D92F
:404040001B197A1E9C4200D924E19A4500D821E1023F1B195E4632041743380CBB46009E009F51463F0C32045B1A5946BA46120C0F043F0C904651467A434F434146414365
:4040800056467043CF19160CBE19B14202D980277F02C019310C12043604120C4018B618834200D2C4E000D1BEE0191A4846861BB145BF417F42CF1BA74200D113E1291C90
:4040C000381CFEF7B7FF019902904143381C8946291CFEF7F3FF330C0904194389450CD9029B0919013B8C4200D9FFE0894500D8FCE0029F0919023F02974F46CF1B381CF4
:40410000291C0597FEF796FF071C0198291C784381460598FEF7D2FF36040904360C0E43B14509D936197B1EB44200D9E0E0B14500D8DDE0023F3619029D4946761A2904FF
:4041400039430B0457460A0C1B0C40464546584355437B437A43EB18070CDB199D4202D980256D0252191D0C00041B04000C52191B18964235D300D1FCE001231943049E33
:40418000994FF519002D00DCA1E0480709D00F230B40042B05D00B1D8B42894149428B44191C5A46D20107D5904B5C46049E80271C40FF00A346F5198D4B9D427ADD039C74
:4041C0000122224000248B4DA146C1E680242403474627424CD13C432403240B009A854DB6E63619481EB4425ED9011C9642C4D1009E9E42C1D1C2E7031C283B311C994028
:404200008B46002188E6301C00F0DAFF203072E6283B211C994000228846914651E6201C00F0CEFF20303BE60021B14500D33DE7009F5A46B944B945BF417F423F19FB180C
:40424000013A9C421ED2984200D97EE000D1B5E0191A93462AE7894500D8ADE64846464642467708D3074608C0071E438146AAE65846204212D1044324032A1C240B89460B
:404280005C4D65E6A342E3D1009F4F45DBD9211A93460BE7171CDDE69B46BCE63C432403240B009A534D53E6B24259D800D18AE0011C62E75F46C9087B07039E0B437C0298
:4042C0006D0501229946240B6D0D324040E64A4B049FDB1B382B10DD039C0122224000240025A14634E60121494248E7029304E71F1C21E7019C039441E71F2B40DC3F4835
:40430000049F0C1C3A1858469140DC40904020430A1C511E8A41011C11435A46DA40131C480709D00F220A40042A05D00A1D8A42894149425B18111C1A0234D5039C012273
:40434000224000240125A14602E6009F02214942B9448B44B945894149420919CB18A4E6009D881E6900A942AD416D422C19361900913AE7002B00D033E70024009437E762
:404380001F4A049C5D46121BD5402A1C202B1FD01C4E5F46A3199F403B1C19434B1E994111430023BCE75A07C9080A43039F91465B0201221C0B3A400025C9E54E45C4D8BA
:4043C0009346002172E6009F9F42C9D3011C0FE70023E2E7802424035F463C432403240B019A8946034DB3E5FF030000FFFFFFFEFE070000FF07000002FCFFFF1E04000093
:40440000E2FBFFFF3E040000F0B5564644465F464D46F0B41F1C0B031B0B9A464B0087B0041C80465B0DC80F161C02938146002B68D0694B0299994232D080225346520315
:404440001A43D200630F1A439246644AE000891880460291002400253B031B0B9B467800FB0F321C400D039300D175E05A4B984269D08022594652030A43730FD2001A432B
:40448000564B9346C018F200002303994E4671401C430F2C00D9A9E0514EA4003459A74653461C4300D087E00025AA46A84608240225D1E74946022D6CD0032D00D117E2CA
:4044C000012D00D058E10D40EDB20024A9460023A0460020002125030A0D1C052D0B1205404B2A43134023435B004C465B08E207191C4046114307B03CBC90469946A24648
:40450000AB46F0BD5346234350D05346002B00D184E1504600F054FE031E272B00DD76E128210D1A211C083B5246E9409A400D1C1543221C9A40AA4690462B4B00241B1A8C
:404540000293002588E75B461E430323002E9CD1B3460022022398E75B46334321D05846002800D14EE100F02BFE272800DD42E128210F1A021C311C083A5B46F94093408E
:404580000F1C1F43331C9340BB461A1C164B181A00237AE701230B4000249946A0460E4B97E70027BB46002201236EE7002104248A46884601254FE70C2403254CE7002519
:4045C0008024A9462403A846034B82E7DA46904603991D1C6FE7C046FF07000001FCFFFF88480100FFFF0F800DFCFFFF029F160C381804904046070C0004000C1204120C4B
:40460000031C5343041C3D1C7443554398463B1C73436419A44644460293230C63449D4204D9029D802464022D1902951D0C039545462C041B04240C1C1905945C46230C0A
:40464000051C58432404240C8446381C604365435F438146CC44280C6044BB46814502D980277F02BB442D04070C2D0C000440195546BC462F04E3448446280C3D0C2F1C40
:404680005743B8462F1C77434243B94647463F0C9144BA46D14446434A4502D980225202B6184F463A0CB6183A0447463F043F0CB8462F1C67435D4344435843651901909A
:4046C000380C2D184244B846AC4204D9019880235B02C0180190039C029F201C6044C0196045A44147466442A4462B043C049946240C4C44A046D8448018C246E244904298
:404700009241574652429146F219E245BF417F424B46BC46D845BF41D4187F4263461F432D0C7F19B24292414C45AD4152426D421543019E7D19AB19E20D5B02059F134352
:4047400042023A439A46531E9A41C30D101C18436402204380465046C0010DD5454601225646049C6B082A401A43F30701341A43760804949046B246049E634FF319002B0E
:4047800061DD404640070BD00F2244462240042A06D042460432424580414042824490465546ED0107D5594B5646049F80201E40C000B2463B18564A934200DDEAE64446D1
:4047C0005546E2086807104301226C025B050A408046240B5B0D91467BE6DA4690461D1C69E680242403574627421CD13C432403240B484B6DE6031C283B311C99408B4632
:404800000022C3E6301C00F0DBFC2030ADE6283B211C994000228A4690468EE6201C00F0CFFC203078E65846204207D1044303992403240B89469046364B4AE63C43240350
:40484000240B344B45E6344B049E9B1B382B06DD01230B4000249946A046002339E61F2B25DC049C2D4D46466019524644468640DC4082405746301C2243DF40441EA041C8
:4048800002433B1C540709D00F201040042805D0101D9042924152429B18021C1D021AD501230B4000249946A046012311E61C48049C5546001BC540281C202B16D0194E55
:4048C0005746A21997403A1C43461A43531E9A4102430023D6E758075B02D2081C0B01230B401043994680460023F2E50022EBE78024240350460123044319402403240B4F
:404900008946044BE5E5C046FF030000FFFFFFFEFE070000FF07000002FCFFFF1E040000E2FBFFFF3E040000F8B55F46564644464D46F0B40C034D00CF0F610A440F21433B
:40494000C4001803DE0F8046B44646465800760A530F3343D600D14A6D0DBA46400DB346904200D1F5E06246012672409446674500D1ABE02F1A002F00DC11E100283ED166
:404980005846184300D0F1E0600700D197E00F232340042B00D122E1221DA242A4416442802309191B04012750460B400740141C002B00D179E0B94B01359D4200D10BE1D9
:4049C000B74BE40819404807490204430B0B002000211B031A0B0B0D6D051B0513436A08B04DFF071D4015436D006D08291C3943201C3CBC90469946A246AB46F8BDA748C2
:404A00008542C1D0802000040343382F00DDFDE01F2F00DD31E12020C01B1A1C5E468240FE40324394465A468240101C421E9041FB40624602431F1CA21A9442A441644253
:404A4000C91B091B141C0A029ED549024F0A002F00D1D6E0381C00F0B3FB021C083A1F2A00DDC3E02821231C091A9740CB401F439440954200DDC0E0551B691C1F2900DDD9
:404A8000EAE01F22551B3B1C221CAB40CA40AC40651EAC411343CF401C43391C002573E780217E4D0027C90300247C4B4807E4080443C9089D4250D009030B0B87E780232E
:404AC0001B04012752460B40174071E72A1A9446002A00DCA1E0002854D07048854200D152E78020000403436046382800DD0EE11F2800DD57E162462020801A1E1C8640C9
:404B0000B1465E46D6404A4632435E4686409046301C421E9041424602436046C3401219A242A441644259180919141C080200D42AE75A4B01359D4200D131E1584B600898
:404B40001940012323401C1C0443CB071C4349081AE71E4300D00AE705E7231C0B433BD080231B030B431B031B0B30E7013F002F6DD15E46A21B9442A4416442C91A091BCD
:404B8000141C60E75846184300D1FDE601267642B4446046002800D0D0E05E463219BFE7002F00D080E0681C4005400D012800DCE8E05A46A21A9442BF41C81A7F42C71B1E
:404BC0003E0200D498E05846041BA3459241591A52428F1AE2463AE700230024F7E680231B04012756460B403740E1E6271C283887400024954200DC3EE72949AD1A39406D
:404C0000C2E6201C00F0DCFA203026E75A461A43531E9A41D2B200270EE7002A00D0DEE0681C4605760D012E00DC90E01B4DA84200D1F5E05E463219A242A4416442591838
:404C40000919CC07520814434908051C9CE61348854200D0D9E697E62B1C1F3B3E1CDE40331C20296FD03F22551BAF403C43601E84411C430021002586E6381C20381E1C03
:404C8000C640301C202F60D04022D71BBB405A461A43531E9A4102430027CDE6FF070000FFFF7FFFFFFF0F80002D37D0B64DA84200D18FE080252D047F422943382F00DDB5
:404CC000A8E01F2F00DD24E12025ED1B0E1CAE40B046261CFE404246AC401643651EAC413443F9405A46141BA34592415B1A5242991A051CE246A6E6131C3B43141C002B11
:404D000000D0A4E60027002100250024CDE65A461A43531E9A41D2B2002300E70D1C254358D0FF43002F51D15A46141BA3459241591A5242891A051CE24684E6924885422A
:404D400000D0D1E620E6002790E700239FE7081C2043002D00D0C2E0002800D1EFE05846184300D110E658460219A242A441644259180919141C0A0200D405E6834B012507
:404D8000194001E6081C2043002D38D100286FD15946194303D0191C5C46E246F4E500270021002481E6604620381A1CC2406646101C202E00D1AAE04022921B93405A46DC
:404DC0001A43531E9A4102430023A8E66E4DA84200D073E7191C5C46051CE246D4E5002D22D10D1C254376D0D543002D70D15C445C459241591852428918051C96E6002870
:404E00004CD15946194300D14AE6191C5C46E2465D4DB9E50C43611E8C41E4B2002161E7051C0021002440E6574DA84253D05542802216043143382D7BDC1F2D00DD8CE023
:404E40002022561B0A1CB446B240261CEE403243904662469440661EB44142461443E9405C445C459241CB1852429918051C5DE65846184300D187E55E46A71BBC429241A8
:404E8000C81A5242801A060260D55846041BA3459241591A5242891AE24675E55846184333D04807E40804438020C9080003014208D0DD08054205D15946CA085C071443C7
:404EC000291CE246630FC9001943E4002E4D5BE52D4A9042AFD1191C5C46051C54E5002830D05846184310D080254807E408C9082D0304432942E5D0D8082842E2D15D462C
:404F0000EA085C071443011CDCE71F4D3CE5002355E73D1C203D0E1CEE40351C202F2ED04026F71BB9400C43611E8C412C430021D8E60C43611E8C41E4B2002190E7191CF5
:404F40005C4621E5191C5C460F4D1DE5031C3B4300D124E7011C3C1C16E52026764276190A1CF2409046202D0BD04026751BA9400C43611E8C4145462C43002170E700217B
:404F8000D1E70021F4E7C046FF070000FFFF7FFF43001B0E5A1C4102D2B270B54C0AC50F012A17DDE02292006407090B9818002200231E0D221C34050C431B4940054008B4
:404FC0002140014349004908ED070B1C2B43101C191C70BD002B15D1002C1CD0201C00F0EFF80A281ADC0B21091A231CCB40191C031C15339C400D4B0903181A4005090BF7
:40500000400DD4E7002C03D06407090B0848CEE707480021CBE700200021C8E7011C0B398C40211C0024E6E7FFFF0F8089030000FF070000F0B54B000D03420F5B0D6D0A29
:4050400015435A1C5205CC0FC600520D012A27DD394FDA19FE2A1ADC002A35DD8001ED00431E98412843760F3043430704D00F230340042B00D004308021C904014027D090
:405080000132FF2A1DD083015B0AD1B201E0FF2100235802C905400AE40708432043F0BD002B06D1354311D10021002043025B0AEFE72E43EBD08020ED0080042843FF2279
:4050C000D3E7FF210023E4E717320DDA05200022C008D1B2FF2AE9D10028D9D08023DB0303435B025B0AD4E78022144912041543C91A1F290DDC124A371C9B18281C9F4028
:4051000098403B1C5A1E93411843CE4030430022ABE70C4F2A1CFF1AFA40171C202909D0094A98188540281C3043461EB041384300229AE70020F7E780FCFFFF9E03000010
:4051400082FCFFFF7E030000A2FCFFFF8446081C6146FFE71FB500F0C3F8002801D40021C8421FBD10B500F049F84042013010BD10B500F0B5F8002801DB002010BD0120AE
:4051800010BDC04610B500F0ABF8002801DD002010BD012010BDC04610B500F059F8002801DC002010BD012010BDC04610B500F04FF8002801DA002010BD012010BDC04611
:4051C0001C2101231B04984201D3000C10391B0A984201D3000A08391B09984201D30009043902A2105C40187047C046040302020101010100000000000000004A02430231
:4052000070B55C0A550A43004A001B0EC60F120EC90FFF2B05D0FF2A08D0012093420BD070BD0120002CFBD1FF2AF6D10120002DF6D101209342F3D1AC42F1D18E4205D0D6
:40524000002BEDD1201C441EA041E9E70020E7E74A024302F0B55C0A550A43004A001B0EC60F120EC90FFF2B31D0FF2A34D0002B16D1604260418446002A14D0002820D1EC
:405280008E4217D1934215DC04DBAC4212D80020AC4212D2704270414042012318430CE0002AEDD194466F426F416046002805D1002FE5D0704201231843F0BD0020002F9F
:4052C000FBD148424841404201231843F5E7002CCBD002204042F0E7002DC8D0F9E7C0464A024302F0B55C0A550A43004A001B0EC60F120EC90FFF2B27D0FF2A29D0002B19
:4053000010D0002A15D194466F426F416046002815D00020002F04D148424841404201231843F0BD604260418446002AECD00028F2D18E4211D0704201231843F1E7002FE3
:40534000F7D0704201231843EBE70220002CE8D1D3E70220002DE4D1D1E79342EBDC04DBAC42E8D80020AC42DBD270427041404201231843D5E7C04670B50E4B0E4D0024DF
:40538000ED1AAD101E1CAC4204D0A300F35898470134F8E70FF098FA084B094D0024ED1AAD101E1CAC4204D0A300F35898470134F8E770BDD4480100D4480100D4480100C9
:4053C000DC48010030B50023934208D0C55C0133CC18013C2478A542F6D0281B00E0002030BD10B50023934203D0CC5CC4540133F9E710BD031C8218934202D01970013316
:40540000FAE7704710B501F015FA10BD10B500F0DBF810BD10B50749044609780220002907D1204601F02CFA002802D1204608F0C7FD10BDAA020020F7B51F4E00243078D2
:4054400015460F46002804D00824B76075802046FEBD002F00D1012401F0ECF90098002805D0172D03D301204002854201D90124EBE7002CE9D12946384600F023F80400A0
:40548000E3D1706800F01CF80400DED1706800F015F80400D9D101F0D5F90400D5D1009806F084F80400D0D106F096F80400CCD101203070C9E700009801002000207047E8
:4054C00000207047F8B50D4607460026FDF748FDFDF730FD00F03EFA040065D100F0C8FB040061D13449084600F086FD0404240C5AD1A80705D0A807800F0421081A4019BA
:4055000085B2172D02D968002E3886B22B48301881B2384601F072F8040045D1284F03460246002825D127495E008E5B294610318E4207D99000C01941800221521C417085
:40554000D2B215E08E420BD10020787690001D49C0194680891FC95C891C4170012012E0052A06D1164806461436418302207071012014495E008E5B9100C9194E80114E07
:40558000B61FF65C4E705B1C521CDBB2D2B2062BC7D30B4800F06CF8002C05D100F084F807490120891E087000F0E6F9002C01D0FF20F8BD0020F8BDDD550000940C000059
:4055C000A60100200649010010B503480078012801D100F0A3FE10BDA40100207047000010B5011F0878034A8000105800F0A6FF10BD0000CC10002010B504460449800063
:40560000085800F009FF002801D00470001D10BDCC10002038B5044692B2C9B2684600F021FF024AA1000098505038BDCC10002070B50B49064600204C680546617800290F
:4056400008D06188B14202D32078FFF7D5FF002804D1241D6D1CEDB2082DEFD370BD0000C801002010B5002801D0FFF7B9FF10BD70B50B4E0446002570606178002905D0FF
:4056800062882078121D0023FFF7C4FF6D1C241DEDB2082DF1D3024800F0A2FFB06070BDC8010020002070471CB5002469460C70142001902346054A05480CF005FA0448F2
:4056C0000068401C00D1FF2420461CBD25570000D40100203EB5124A0146FF2000230124126800290DD0012914D0042908D104206946009308814B8110460CF0E0F980B299
:405700003EBD6846009304814381694610460CF0D1F9F4E768460093048143816946EBE7D401002070B54589046841680089030000F026F806240408081D2124002004F0E8
:405740000DFF1BE0022908D0C8B22A4621460AF0A7FC2046FFF786FF10E002202A4621460AF09EFC2946204600F018F806E000200BF09EFE02E020460CF02CFA002070BDAA
:4057800030B47446641E2578641CAB4200D21D46635D5B00E31830BC18470000014B0022DB681847D801002010B542890168094B00899C68022803D0032804D0FF2010BD5E
:4057C0000023012003E0121D002392B20220A047002010BDD801002070470000024800214160018041807047D801002070B50C46002186B016460391012802D0022859D13B
:4058000016E003A9012005F00CFE01281BD1039D324621462846FFF7E4FD0095287801900220694608814E816846FFF7BDFF41E0214D002B686809D0049004A9022005F0C3
:40584000F0FD01281DD0022006B070BD002812D0298840182146FFF7C4FD28880024801980B228806988091D884206D12C801348FFF79AFF03E00320E6E788421AD96C60FE
:4058800018E004986860E278A378110219430B4A698000231060E3565360032313815181A1788170E178C1706178417021780170042028800020C7E7D8010020EC10002088
:4058C000F7B5022784B016460546022802D0042D29D106E005980090019568460781428113E01046FFF7A4FE040016D032460599FFF777FD68460195009407810B4B468167
:40590000DB6800223146059898470948694600680CF0D5F8012007B0F0BD044B0022DB683146059898470020F5E70000D8010020D4010020014AD16090607047D8010020AC
:40594000034801688068081A0A21484300097047F810002010B5FDF7F3FA542204490548FFF73FFD03490120C870002010BD0000164901004813002010B5FDF7D5FA10BD21
:4059800070B5134C2368002B08D0207B1149C20705D04008400020738868A08070BD88680B4AA18880B29268814203D90A4D691A091802E0814202D2411A5118A160A08058
:4059C000A0689842EAD300F015F80CF095F870BDF8100020C0102E40FFFF000010B508461946FFF7A7FF10BD704710B5FFF768FF10BD000003480021016041608160C16000
:405A000070470000F810002010B502000DD0FFF7F1FF074C0321207B0843207310010A21FDF74CFB2060002010BDFF2010BD0000F810002000B504480A218068484302096B
:405A4000FFF7D8FF104600BDF81000200248007B8007C00F70470000F810002070B558490868002802DA574B01221A70022290430860554800695249C00B4031096A0842A2
:405A80006CD0012000F074FA4F4850497C30FDF72FFA4B480E216C30FDF72AFA4A4820218430FDF725FA484814219C30FDF720FA4548FF21C131A430FDF71AFA4248FF215E
:405AC0002F31B030FDF714FA3F484149BC30FDF70FFA3D483F49AC30FDF70AFA3D493A48491CB430FDF704FA37483B49B830FDF7FFF935483949CC30FDF7FAF93248384992
:405B00000830FDF7F5F930483649A830FDF7F0F92D4835498830FDF7EBF92B4833498C30FDF7E6F928481921C9029030FDF7E0F92F4D287E697E0C020443A87FE97F2D4A38
:405B4000090201432C48914201D1072C08D035229201914208D1042C05D005E0FF2070BD0146042400E0014617486C30FDF7C0F9154821467430FDF7BBF9A87EE97E090200
:405B8000014301204003814201D0002900D11B490D487830FDF7ACF92A7F687F010218481143814204D01748814201D0052901D113490A3904488030FDF79AF9002070BD75
:405BC00000F02E40E801002000002E4055650000320300002F3F00003102000010520000EC160000FA12000031D000003AE30000C0F0FF0F580B0000580D0000022000000A
:405C00000F0F00000505000070B50646581C80B245086D00002408E0304600F07FF81055000A1119A41C4870A4B2AC42F4D3D80705D0D0182038D15CC47FD454C17770BD75
:405C400030B50A4C002100195B1E07E0541864782502545C2C430480891C89B29942F5DB994201D1515C018030BD000000102E4010B5FF2000F07CF90F49FF2088700E485E
:405C80001021801D41800121417001700A490020091D4870FFF7E2FE04000AD100F0C8F807210648FDF716F9044807211830FDF711F9204610BD0000E8010020CC112E40A1
:405CC00030B504465B1C1804450C002308E0204600F024F8241D59005B1CA4B250529BB2AB42F4D330BD000070B500210A4D5B1E0AE0541864782602545C34434619348073
:405D0000001D891C80B289B29942F2DB994202D1515C4019018070BD00102E40014940180088704700102E40014A80180180704700102E4010B508490020487000F078F866
:405D400007210648FDF7C6F8044807211830FDF7C1F8002010BD0000EC010020CC112E4010B50B46062812D006DC01280CD0032801D1FFF7DFFF10BD0A28FCD00B28FAD1A6
:405D800005480078107010BDFFF772FF10BD1146184600F01FF910BDEE010020F8B5214DAC6A0127A007204E002818DA3078062810D1286A384328621C480069F90308431A
:405DC00081B21A481030FDF793F8301F4770042000F0CEF8134802212830FDF77BF8E00711D0062000F0C4F80F49FF20091F88707078002802D1686B384368630948012192
:405E00002830FDF767F8E0050BD53078042802D1052000F0ADF80348FF2101312830FDF759F8F8BD40F02E40EC01002000002E4010B503212348FDF75BF80120FDF766F87B
:405E400020483038406A204C80076178800F890001431C480C38FDF74BF86078002808D0401E022181401820FDF788F9C000083800E0B82081B21548FDF73AF813480321ED
:405E800009021438FDF734F810481149B830FDF72FF8452189010F48FDF72AF80D480321001FFDF725F80C490C48FDF721F80B480B496038FDF71CF8084801218838FDF78D
:405EC00017F810BD70F02E40EE010020D8102E4090890000041E2E40FF0F000058122E40209000000849087806280BD148780749002803D1486B400840004863C86A012232
:405F00001043C86270470000EC01002040F02E400148007870470000EC01002000B50300FFF72EFC080D050D0B070507090D012000BD032000BD042000BD022000BDFF202D
:405F400000BD0000074A9168D26889B2064B92B2994204D105498A4201D1012100E000210170704780002E4033D000003FE3000010B50446FCF7DEFF072C01D9FF2C01D12D
:405F800002480470FCF7D0FF10BD0000EC0100200149887070470000E801002010B50A4A141D012808D009491046FCF7A1FF08492046FCF79DFF10BD04491046891CFCF7B1
:405FC00097FF0349491DF3E788002E4031D000003AE300000078074AFF2803D04C2804D9553803E01078087070474F380870107070470000EB01002010B50F4A002313603A
:406000000E4A13600E4B18600E4801600E49012008600E490860000290600E490C4808600D4914300860FF381538506000F0BCF800F0CAF9002010BD0C020020F4010020AC
:4060400020020020240200201002002000020020081200200402002018020020014610B50020002910D0094B1A689C685118A14209D25868196080188A0704D08A07920F0C
:40608000891A091D196010BD002010BDF4010020F8B50024164E671E321F3D463168136806E01422624310328A58521C1BD0641C9C42F6D36A1C14D02C46142254432246B7
:4060C0000C3288500C214843FFF7C8FF3168002808510AD031680020103408517068401C70602846F8BD2546E4E73846F8BD000004020020F3B50026F64381B000281BDBBF
:406100001E490968884217D80299002914D01B4F142204463F1D54432546396810354859401C09D0FCF706FF38682F1F4159C359994203DBFCF7F8FE3046FEBD2146083113
:406140000091465801590C20704308180C220299FFF747F90948761C001D0068C159B14200D100260549009A091D865008684159491C4151FCF7D8FE0020FEBD0002002081
:40618000002803DB07490968884202D90020C043704704491422091D09685043103008587047000000020020F0B500200D4A451E0346171F50600FE0142601467143146825
:4061C0000E1DA3510C461668083433511668083435511468401C635039688842ECD30020F0BD000004020020F3B50026F64381B0002841DB2349096888423DD8029900290C
:406200003AD0204F142204463F1D54432546396810354859401C2FD0FCF78CFE3868415900292BD0211D009146580C21005971430F46C1190C220298FFF7D3F81148002171
:40624000001D0068761C00590C34C0190160416081600C48001D00680159B14200D100260849009A091D865008684159491E4151FCF75AFE0020FEBD3046FEBDFCF754FE0F
:40628000FAE7000000020020FEB504460D4600201E49089E0860471E009001900290002C11D0486885420ED2002A0CD0002E0AD0642E08D808460C3001681C2068430C18FC
:4062C000207A002801D03846FEBD0120226020721846FFF7DDFE6060401C13D06681A6810A4827610C3067610179A94200D205710021684601810A462846029B00F040F802
:406300002846FEBD00202072DDE700000C02002038B50124009400F039F838BDFEB50027164EFF433D4600240EE01C20316860430818017A002906D04068FFF721FF0028C7
:4063400001D0254603E0641C3079A042EDDA681C12D01C2130684D434419FCF7EBFD69466068FFF741FF0546FCF7DEFD002DD9D1216868468847D5E7FEBD000018020020D5
:4063800038B50024009400F001F838BD1FB500220C49541E0A60002811DB496888420ED808491C220C31096850430818406801A9FFF7A0FE401C02D0002004B010BD2046B3
:4063C000FBE700000C020020F0B50021114A4D1E174611710C3F0B46BD6016E008461C2460431668041D355114680646235014680836A3551468361DA353044616680A3465
:40640000335318301468491C255078688142E5D30020F0BD1802002038B500210091002811DB0F49097888420DDA0D4D04010C3529680859002807D0201D0818694600F00C
:406440005FF9002801D0002038BDFCF773FD28680F34015D491E0155FCF766FD009838BD28020020F7B582B00025ED43029800240E460560002A49D0002E47D02D48D21CA3
:4064800002402D48174601780C30006805E022018258002A0FD0641CE4B28C42F7D3691C3ED02C01211D40180191314600F016F900282BD101E02546F1E71F480C30016860
:4064C00020460C300F521C480C30016820460E300E5419480C30016820460F300E543846704300F0ADF814490C310968002808510CD00024009011E00F480C300168019815
:406500000818009900F017F9002802D0012005B0F0BD0098C019641CE4B20090B442EBD30298054905600C310879401C08710020EDE70000FCFF000028020020F8B50D4641
:4065400000216A468C461180002839DB23490978884235DA214B04010C3319680A59002A2ED020460C300B5A801C0E5C184670438018954224D3854222D2002006E0074697
:406580005F43BF18AF4206D0401CC0B2B042F6D36046002814D0114E271DC8190C366A46294600F0F2F800280AD168460088012808D030682946C01900F0BDF8002803D0E7
:4065C0000120F8BD0020F8BDFCF7B4FC30680F34015D491C0155FCF7A7FCF3E72802002003460020002B06D0034A5168906852884018511A198070472802002070B50024B7
:4066000000F0DCF80D4E002132460C3271600EE0200113680546195013680C355953AD1C13680F3059551368641C1954E4B230788442EDD31171002070BD00002802002077
:40664000014610B5002000290CD0C91C064B8A08596892005C888A18A24202D898685A60401810BD002010BD28020020F8B5002827DB19490978884223DA174C05010C344A
:406680002168485900281CD028460C30085A009028460E300E5C401C0E5420682F1DC01900F064F800280CD12068002445590EE0094829460C300068C01900F03CF800286D
:4066C00001D00120F8BD00982D18641CE4B2B442EED30020F8BD00002802002030B50D4604000BD0A800FFF7ABFF6060002805D000202570C0436080002030BD012030BD5B
:4067000070B50D46040005D0002D03D00220205E002801DA012070BDFCF70CFC0221615E60688900405828606088401E6080FCF7FBFB002070BD70B50D46040007D0002DED
:4067400005D002212078615E401E814201DB012070BDFCF7EFFB6088401C00B26080616880000D50FCF7E0FB002070BD10B5040009D0227800216068FEF73CFE0020C04394
:406780006080002010BD012010BDF0B500231D46002802D00224045F0AE00120F0BD46689F00F6598E4201D1012503E05B1CDBB29C42F4DA15700020F0BD0000054B1122EC
:4067C0001A70054A1180064A044911600549086070470000280200202A02002038120020340200203002002001480078704700003C0200207CB505460024FEF703FEA8797F
:406800006946087000A8062229460130FEF7E9FD0021684604F000F90C2804D0072804D01F2804D004E0022402E0042400E0272420467CBD10B500F0BDF8FFF769FBFFF76C
:406840006DFB10BD10B503240BF03EFE002810D10BF0E2FD00280CD104F032FE002808D100F060FA002804D104F030FB002800D10024024900200870204610BD3C020020BC
:4068800070B50025044600280ED0A07901280BD8FEF7B8FDA0790028204602D002F008FE03E002F0BDFD00E00125284670BD38B504460120002C20D0617801291DD8002939
:4068C0000BD0FF25E535FEF79DFD2846FFF726FAC0B22070072803D00EE0FF25CD35F2E70020694608706846FFF72CFB69460878012801D108202070002038BD70B5044603
:406900000120002C1FD06178012902D92278092A19D8002906D0FF25E53520780726092803D003E0FF25CD35F7E72670FEF76AFD2078082808D00020FFF730FB21782846B8
:40694000FFF7F2F9002070BD0120FFF727FB2670F4E7000070B50D46040001D0002000E00548002802D0012101F0D4FF2946204602F0AEFA70BD0000BC13002038B5054602
:4069800000200446009022466946284600F062FE0098002801D00BF079FDA878214602F0DBF8A878214602F0CAF8641CE4B2052CE9D338BD38B5FFF7ABFA224C21780129CE
:4069C00011D0062813D0032836D007280AD100206946087002460120FFF7C2F9FFF798FA0128FBD138BD20780128FCD038BD02F01BF9FFF78DFA0128FBD120780128FCD010
:406A0000A12424012046FFF789F901210E4A83079B0F1170022BE9D15288002AE6D001432046FFF781F92046FFF778F9410849002046FFF779F938BD02F0FAF80120FFF787
:406A400097FA38BDE901002042020020F8B50646002402F03FFE0546304602F053FE00210346012632468A40174610462F401840002F03D0002801D1224394B2491CC9B2FE
:406A80000529EFD32046F8BD1CB50020694648706846FFF70CFF01AA69460A20FFF760F96946042008561CBD10B50C4601F076F9002809D00179002906D0C178807822465D
:406AC00002F0B4FA002010BD022010BD0148007870470000881300204030C07E002800D00120704700B500F001F800BD88214843064940186030417F491CC9B2417705291D
:406B000001D300214177C8B2704700009C13002013B501F043F904000BD001F0CEFC002807D0214601AA0A310620FFF719F900201CBD02201CBD000010B50C4601F02EF97C
:406B400000280AD001F0B9FC002806D0224604490A20FFF705F9002010BD022010BD000071130020F3B581B0074601460026029802F0A8FD0446002F01D0002500E0154DA7
:406B8000002D21D0284601F03FF9032C04D13946029802F0C1FD06463846029901F0CFFF032C06D0002C10D00121384601F04CFA03E03146384602F063FF284601F090FE2E
:406BC0000221284601F0A6FEFEBD3846029901F0B6FFFEBDBC13002070B50446002503F055FB002801D00C2070BD2078611C02F017FBFF2802D01F25284670BD02F064FBE0
:406C0000FF2804D02178621C01F00EFFF4E70725F2E710B503F03AFB002801D00C2010BD02F0D6FA002010BD70B50D46044610210BF06CFB1021601806460BF067FB3346B6
:406C400010221946204603F04DFB102130460BF05DFB02202870204604F090F870BD70B504464078217802028006850FE0781143A67809050002090D0643084601F08EF843
:406C8000002812D0022D10D0032D0ED0002E08D00179092909D0002907D0214600F0A1F870BD0089002103F09EFF20460BF0EEFB70BD0020704770B50446002503F0E6FA16
:406CC000002801D00C2070BD2078611C02F0A8FAFF2802D002F0EAF900E01F25284670BD10B504F0F3F800F0F6F8002010BD10B5044600786178E2780843A17811430843E0
:406D0000217908436179084305D003F0B1FA002803D00C2010BD122010BD204602F0C8FB002010BD10B5044803F01AFB02F0C8F900F004F8002010BD58130020F8B5114DA0
:406D400000266E706E736E716E76AE76EE766E75AE70EE70AE712F46EE730120B03778723F2078719B20B87100F00AFA0024204601F06AFB641C2406240EF8D03E72FE71DA
:406D8000AE73F8BD9C13002070B505460E46084602F0A0FC0446304602F0B4FC0121A9400A46224001400A4301D0012070BD002070BD10B50446084602F0A4FC0121A14083
:406DC000014201D0012010BD002010BD10B5FFF79FF8032804D101F02BFF0120FFF7C8F810BD70B5044600790D4609281CD000281AD020464030817E491C8176204601F0A1
:406E00006FFDA078FFF76EFE064602462946204600F00CF8002806D1A0783146FFF79AFD28460BF033FB70BD0846FAE7F7B5054648780C468006870FC8788978000282B067
:406E4000014368468180284601F042FB060007D021462846049A00F091FB304605B0F0BD384600F039FC0746034601AA2946204600F0CAFA68468088231DC0B20090A8785A
:406E8000FF22049901F0DEFF684680883B46C2B2A878049902F088FBDFE770B5002500242846FFF7D3FD060010D03046E040C007C00F07D02146284601F035FE214628464A
:406EC000FFF750FE641CE4B2052CEED36D1C2D062D0EE4D070BD10B502F0F2F8FFF72EFF0BF03CFB002010BDF8B5002400F081F80123012800D10124104F00203E462036B5
:406F00000425082203E0002801D0002100E031460979002907D001290BD002290BD0114681402143CCB2401C0006000EEBD07C70F8BD1C43F7E72C43F5E700009C13002000
:406F400010B5FFF7D1FF10BD10B50B4681791943817103D08078114602F0EAFA10BD10B582798A43827102D1807802F0F9FA10BD70B5FF25D53502242846FEF7CFFE0C4A9A
:406F80009178002901D0022906D1137852789A18282A01D9032402E0032900D101244105490DE00201432846FEF7BEFE70BD00003E02002010B500F022F8002807D0012809
:406FC00005D0032801D0042801D0002010BD012010BD014610B50020C90701D000F009F810BD014610B50020C90701D000F001F810BD10B52020FEF791FE000A10BD10B5B5
:407000001820FEF78BFE410501D5042010BD4007800F10BD38B5044640060CD5684601F00DFE0220FFF78CFF072002F065F96846007801F071F9200613D5FFF7E0FF01283B
:407040000FD1684601F0FAFD6846007800F09AFA072002F051F9012001F0AAFC0220FFF76FFF38BD10B5034A0178117002F053F9002010BD3E02002010B50446FFF7B9FF06
:40708000002801D00C2010BDA27B01211848002A827801D00A4301E05208520082706279012A0FD0C17849084900C170207901280CD06188208802F051FF208020790428BF
:4070C0000BD00DE0C2780A43C270EFE7E01D02F0D7F90848808C208002E0E01D02F0D0F9054920798870204602F024F9002010BD9C130020481300203E02002038B5047890
:40710000FFF777FF844201D10C2038BD002C18D0072069460870FFF74DFF012807D10121684600F08DF8012801D0092038BD6846007802F0E1F8FFF71BFF02F02BF90120F0
:4071400010E0FFF737FF012806D1684601F076FD6846007800F04AFA072002F0CDF802F00DF90220FFF7ECFE002038BD10B5034A0178517002F0B4F9002010BD3E02002062
:4071800038B568460BF018F9002801D01F2038BD01210098C90201804180002505714571857107214173857302F0C4F8009C202200212046FEF71EF925702A460021601C58
:4071C000FEF718F9204602F0A6F8204602F088F900980BF05BF9042200210248FEF70AF9002038BD3E0200200346084800B5834209D8184600F0D2FD002804D00089984265
:4072000001D1012000BD002000BD0000FF0E0000074A9179491C8906890E917138220A4092014907090E114308430249084070479C130020FF0E0000C006C00E704700001E
